:10000000020040B808013208115FE8A475F005321B
:0D001300B800013218115FE8A475F0053245
:1000400075880575A8857590FF75A0FF75A040C2DD
:10005000D775F005740078009000907302005BE89B
:0F00600090008093F5A0900090227F7DDFFE221C
:0900800040F9A4B0999282F880C5
:1000900011BD02005B11C602005B11D702005B11AB
:1000A000E802005B11F902005B310A02005B311BC0
:1000B00002005B312C02005B313D02005BD2907C80
:1000C00008116ADCFC22D2907C07116ADCFCC29029
:1000D0007C01116ADCFC22D2907C06116ADCFCC235
:1000E000907C02116ADCFC22D2907C05116ADCFC57
:1000F000C2907C03116ADCFC22D2907C04116ADC81
:10010000FCC2907C04116ADCFC22D2907C03116A50
:10011000DCFCC2907C05116ADCFC22D2907C0211CE
:100120006ADCFCC2907C06116ADCFC22D2907C0165
:10013000116ADCFCC2907C07116ADCFC22C2907C54
:0601400008116ADCFC223C
:00000001FF